:1000000012C02AC029C028C027C026C025C024C0CD
:1000100023C022C021C020C01FC01EC01DC01CC0E4
:100020001BC01AC019C011241FBECFEDCDBF20E0E8
:10003000A4E6B0E001C01D92AD3BB207E1F710E0CD
:10004000A0E6B0E0E8EAF6E002C005900D92A43622
:10005000B107D9F795D126C3D3CF803110F48E5F85
:10006000089580E00895CF93C82FB6D269E070E07C
:1000700042D2880FC817C9F3CF910895CF93DF9369
:100080008091B900882361F0E3E8F0E011821082EA
:100090001282339620E0E93BF207C1F71092B900D3
:1000A0004091690080916A0081114FC041112CC0BC
:1000B000809168008F5F80936800803141F4909157
:1000C00067001092680081E0891B8093670080912F
:1000D000660090916700911131C0C5DF8093660082
:1000E0007BD268E070E007D2992763E070E0F2D13C
:1000F00085599F4FEC0188819981AA818093BA002C
:100100009093BB00A093BC0082E880936A0090911A
:10011000690081E0891B8093690080916A008150A9
:1001200080936A00DFEFE3EFF1E0D150E040F04070
:10013000E1F700C00000DF91CF910895803110F405
:1001400042E0480F40936600CBCF2091660030E03C
:10015000C90163E070E0BED1DC01AD57BF4F11961D
:100160009C911197F9013196442369F18091BB006C
:10017000891708F5915011969C93C90163E070E0CE
:10018000A9D1DC01AD57BF4F9C918091BA0089176E
:10019000A0F491509C93C90163E070E09BD1DC0115
:1001A000AD57BF4F12969C9112978091BC00891752
:1001B00030F4915005C09F5FDECF9F5FEBCF9F5F14
:1001C00012969C931DC0992319F0915011969C93FF
:1001D000C90163E070E07ED1DC01AD57BF4F9C9157
:1001E000992311F091509C93C90163E070E072D1A2
:1001F000DC01AD57BF4F12969C9112979111D9CF48
:10020000CF0163E070E066D1FC01ED57FF4FC901FB
:1002100063E070E05FD18D579F4FEC018881998139
:10022000AA8180839183A28378CFCF93DF9320919B
:1002300064008091B900882309F492C08EEF809306
:100240006500E3E8F0E030E0832F820F877090E0F4
:1002500063E070E03FD185599F4FEC01888199811F
:10026000AA8180839183A28383839483A5833F5F44
:100270003696393049F71092B900E3E8F0E0A1E092
:10028000B0E0209164002A0F3B2F311D27703327E7
:100290004181C90163E070E01DD185599F4FEC0198
:1002A000898190E0BC01615071094617170614F46A
:1002B0004F5F4183418101964817190619F014F0E8
:1002C000415041834081C90163E070E003D1855909
:1002D0009F4FEC01888190E0BC0161507109461785
:1002E000170614F44F5F40834081019648171906A2
:1002F00019F014F0415040834281C90163E070E07D
:10030000E9D085599F4FEC018A8190E09C012150F2
:1003100031094217130614F44F5F4283228101967C
:100320002817190619F014F02150228320813181F9
:10033000428123833483458311963696AA30B105D2
:1003400009F09FCF809165008150809365008FE117
:100350009EE40197F1F700C00000DF91CF9108956E
:1003600080916500811189CF82E8809365002F5FBD
:10037000283018F42093640080CF109264007DCF61
:10038000899A84E680936C0010926B0010926D0045
:1003900080E880936F0080936E001092700010923E
:1003A000720080937100109273008093750093E542
:1003B00090937400109276009FE09093780098E4F8
:1003C000909377008093790090E490937B00109253
:1003D0007A0090937C0094E490937E0094E3909351
:1003E0007D009AE090937F0010928100109280002F
:1003F00080938200E3E8F0E011821082128233964B
:1004000080E0E93BF807C1F781E08093B900C0E0E4
:1004100010E000E066E370E083E890E059D0011559
:1004200080E2180739F4CF5FC17081E08093B90092
:1004300010E000E0C11104C0F8DE0F5F1F4FEACFEB
:100440001DDEFBCF21B3242B21BB32B3242F2095FB
:10045000232332B3432B3FB7F894680F791F8617D5
:10046000970711F43FBF0895FC015191CF01E8E0D7
:1004700042BB000000C000C057FF22BB550F000068
:1004800000C000C000C000C022BB000000C0EA9550
:1004900079F7E5CF9C01CB0163E070E01BD0BC0194
:1004A000C901D0DF8BED95E00197F1F700C00000A6
:1004B000089542E0EFCF660F771F660F771F42E087
:1004C000C1DF8BED95E00197F1F700C000000895C2
:1004D00042E0B8CF0024552704C0080E591F880FEA
:1004E000991F009729F076956795B8F37105B9F7CC
:1004F000802D952F089597FB072E16F4009406D0B3
:1005000077FD08D00BD007FC05D03EF4909581957F
:100510009F4F0895709561957F4F0895AA1BBB1B4F
:1005200051E107C0AA1FBB1FA617B70710F0A61BF3
:10053000B70B881F991F5A95A9F780959095BC0114
:10054000CD0108958F929F92AF92BF92CF92DF928A
:10055000EF92FF92CF93DF93EC01688179818A81DA
:100560009B81611571058105910521F464E279EDA6
:100570008BE597E02DE133EF41E050E055D04901A4
:100580005A0127EA31E440E050E035D06B017C01AC
:100590002CEE34EF4FEF5FEFC501B4012CD0DC013E
:1005A000CB018C0D9D1DAE1DBF1DB7FF03C0019774
:1005B000A109B04888839983AA83BB839F77DF9181
:1005C000CF91FF90EF90DF90CF90BF90AF909F9032
:1005D0008F900895B7DF089580E690E0B3DF089527
:1005E000B0E0A0E08093600090936100A09362006F
:1005F000B09363000895EE27FF27AA27BB2708C002
:10060000A20FB31FE41FF51F220F331F441F551FF6
:10061000969587957795679598F37040A9F7009719
:1006200099F7BD01CF010895052E97FB16F40094AC
:100630000FD057FD05D014D007FC02D046F408C0F7
:1006400050954095309521953F4F4F4F5F4F0895FE
:1006500090958095709561957F4F8F4F9F4F08952E
:10066000A1E21A2EAA1BBB1BFD010DC0AA1FBB1FB6
:10067000EE1FFF1FA217B307E407F50720F0A21B28
:10068000B30BE40BF50B661F771F881F991F1A9495
:1006900069F760957095809590959B01AC01BD01BF
:0806A000CF010895F894FFCF8B
:0406A800010000004D
:00000001FF
