:1000000012C02AC029C028C027C026C025C024C0CD
:1000100023C022C021C020C01FC01EC01DC01CC0E4
:100020001BC01AC019C011241FBECFEDCDBF20E0E8
:10003000A4E6B0E001C01D92AD3BB207E1F710E0CD
:10004000A0E6B0E0EEEBF6E002C005900D92A4361B
:10005000B107D9F79FD131C3D3CF803110F48E5F70
:10006000089580E00895CF93C82FC1D269E070E071
:100070004DD2880FC817C9F3CF9108958091B90068
:10008000882361F0E3E8F0E0118210821282339657
:1000900020E0E93BF207C1F71092B90040916900F6
:1000A00080916A0081114DC041112CC0809168007F
:1000B0008F5F80936800803141F4909167001092C7
:1000C000680081E0891B80936700809166009091B1
:1000D000670091112FC0C7DF8093660088D268E067
:1000E00070E014D2992763E070E0FFD1FC01E5597C
:1000F000FF4F80819181A2818093BA009093BB00D1
:10010000A093BC0082E880936A009091690081E02E
:10011000891B8093690080916A00815080936A00F6
:100120008FEF93EF21E0815090402040E1F700C035
:1001300000000895803110F442E0480F40936600BB
:10014000CDCF2091660030E0C90163E070E0CDD1F1
:10015000DC01AD57BF4F11969C911197F901319673
:10016000442309F441C08091BB008917B8F5915030
:1001700011969C93C90163E070E0B7D1DC01AD57E3
:10018000BF4F9C918091BA00891750F591509C9374
:10019000C90163E070E0A9D1DC01AD57BF4F1296F1
:1001A0009C9112978091BC008917E0F491501296AF
:1001B0009C93CF0163E070E098D1FC01ED57FF4FB5
:1001C000C90163E070E091D1DC01AD57BF4F8D9163
:1001D0009D91AC9180839183A2839DCF9F5FC8CF77
:1001E0009F5FD5CF9F5FE3CF992319F09150119670
:1001F0009C93C90163E070E078D1DC01AD57BF4F3B
:100200008C91882311F081508C93C90163E070E0D8
:100210006CD1DC01AD57BF4F12968C911297882399
:1002200041F2815012968C93C4CFCF93DF9380918B
:10023000B900882309F493C08EEF80936500E3E84A
:10024000F0E020E080916400820F877090E063E02E
:1002500070E04BD1DC01A559BF4F8D919D91AC91C0
:1002600080839183A28383839483A5832F5F3696B3
:10027000293041F71092B900E3E8F0E0A1E0B0E0E6
:10028000209164002A0F3B2F311D277033274181B5
:10029000C90163E070E029D1EC01C559DF4F8981C4
:1002A00090E0BC01615071094617170614F44F5FC6
:1002B0004183418101964817190619F014F0415005
:1002C00041834081C90163E070E00FD1EC01C55961
:1002D000DF4F888190E0BC01615071094617170615
:1002E00014F44F5F4083408101964817190619F0B6
:1002F00014F0415040834281C90163E070E0F5D0C1
:10030000EC01C559DF4F8A8190E09C0121503109F1
:100310004217130614F44F5F428322810196281777
:10032000190619F014F02150228320813181428175
:1003300023833483458311963696AA30B10509F09C
:100340009FCF809165008150809365008FE39CE989
:100350000197F1F700C00000DF91CF9108958091DF
:100360006500811189CF2FE382E49FE02150804016
:100370009040E1F700C0000082E880936500809122
:1003800064008F5F883018F48093640075CF1092FA
:10039000640072CF899A84E680936C0010926B009F
:1003A00010926D0080E880936F0080936E00109231
:1003B000700010927200809371001092730080930D
:1003C000750093E590937400109276009FE09093EF
:1003D000780098E4909377008093790090E490936C
:1003E0007B0010927A0090937C0094E490937E00BE
:1003F00094E390937D009AE090937F0010928100A7
:100400001092800080938200E3E8F0E01182108275
:100410001282339680E0E93BF807C1F781E08093D0
:10042000B900C1E0D0E066E370E083E890E05BD023
:10043000CC3D8FEFD80718F4F8DE2196F4CFCC3DF1
:100440008FEFD80731F481E08093B900CDEDDFEF75
:10045000EACF14DEE8CF9C01CB0151B3542B51BB42
:1004600062B3542F5095562362B3462B6FB7F8945E
:10047000820F931F2817390711F46FBF0895F901F0
:1004800071919F01E8E042BB000000C000C077FF0F
:1004900052BB770F000000C000C000C000C052BBBC
:1004A000000000C0EA9579F7E5CF9C01CB0163E03D
:1004B00070E01BD0BC01C901CEDF8BED95E0019748
:1004C000F1F700C00000089542E0EFCF660F771FFC
:1004D000660F771F42E0BFDF8BED95E00197F1F7E4
:1004E00000C00000089542E0B6CF0024552704C0A4
:1004F000080E591F880F991F009729F07695679568
:10050000B8F37105B9F7802D952F089597FB072E45
:1005100016F4009406D077FD08D00BD007FC05D068
:100520003EF4909581959F4F0895709561957F4F0A
:100530000895AA1BBB1B51E107C0AA1FBB1FA6172A
:10054000B70710F0A61BB70B881F991F5A95A9F77C
:1005500080959095BC01CD0108958F929F92AF92A6
:10056000BF92CF92DF92EF92FF92CF93DF93EC0195
:10057000688179818A819B81611571058105910569
:1005800021F464E279ED8BE597E02DE133EF41E072
:1005900050E055D049015A0127EA31E440E050E0EB
:1005A00035D06B017C012CEE34EF4FEF5FEFC501CE
:1005B000B4012CD0DC01CB018C0D9D1DAE1DBF1DE7
:1005C000B7FF03C00197A109B04888839983AA8324
:1005D000BB839F77DF91CF91FF90EF90DF90CF901B
:1005E000BF90AF909F908F900895B7DF089580E6F9
:1005F00090E0B3DF0895B0E0A0E0809360009093B6
:100600006100A0936200B09363000895EE27FF2776
:10061000AA27BB2708C0A20FB31FE41FF51F220F94
:10062000331F441F551F969587957795679598F3C7
:100630007040A9F7009799F7BD01CF010895052EE5
:1006400097FB16F400940FD057FD05D014D007FC8B
:1006500002D046F408C050954095309521953F4F03
:100660004F4F5F4F089590958095709561957F4F9E
:100670008F4F9F4F0895A1E21A2EAA1BBB1BFD01AD
:100680000DC0AA1FBB1FEE1FFF1FA217B307E40771
:10069000F50720F0A21BB30BE40BF50B661F771FC9
:1006A000881F991F1A9469F76095709580959095A9
:0E06B0009B01AC01BD01CF010895F894FFCF6E
:0406BE000100000037
:00000001FF
