:1000000012C01FC01EC01DC01CC01BC01AC019C01A
:1000100018C017C016C015C014C013C012C011C03C
:1000200010C00FC00EC011241FBECFEDCDBF20E009
:10003000A0E6B0E001C01D92AE3AB207E1F702D0EF
:100040001CC1DECF899AC8E7D0E02EEA30E0FE017D
:1000500090E4918380E2808380E8828333962E1738
:100060003F07B1F780936100809360008093620046
:100070008093640010926300109265008093670083
:10008000909366001092680090936A0080936900D4
:1000900010926B0010926D0080936C0010926E00B5
:1000A0001092700090936F00809371001092730013
:1000B00010927200809374009093760010927500F5
:1000C0008093770001E011E0EBEAF0E0DF014E9170
:1000D0003E912E91208331834283FD01CA17DB07B5
:1000E000A9F70A3028F01F5F00E0183008F010E090
:1000F0000F5F40917900212F30E0C90163E070E08B
:10010000ABD0805A9F4FFC01818190E0BC016052CE
:100110007109461717061CF4405E40937900409120
:10012000790080964817190621F01CF04052409340
:10013000790040917800C90163E070E08DD0805A69
:100140009F4FFC01808190E0BC016052710946170D
:1001500017061CF4405E409378004091780080962A
:100160004817190621F01CF0405240937800409146
:100170007A00C90163E070E06FD0805A9F4FFC01A4
:10018000828190E09C0120523109421713061CF431
:10019000405E40937A0020917A00809628171906D5
:1001A00021F01CF0205220937A00FFEF27EE83E02D
:1001B000F15020408040E1F700C0000066E370E0AD
:1001C00088E790E047D080CF21B3242B21BB32B306
:1001D000242F2095232332B3432B3FB7F894680F85
:1001E000791F8617970711F43FBF0895FC015191BD
:1001F000CF01E8E042BB000000C000C057FF22BBB7
:10020000550F000000C000C000C000C022BB0000AD
:1002100000C0EA9579F7E5CF9C01CB0163E070E07F
:100220001BD0BC01C901D0DF8BED95E00197F1F740
:1002300000C00000089542E0EFCF660F771F660F01
:10024000771F42E0C1DF8BED95E00197F1F700C029
:100250000000089542E0B8CF0024552704C0080EDE
:10026000591F880F991F009729F076956795B8F365
:0E0270007105B9F7802D952F0895F894FFCFF2
:00000001FF
